{
  "contractName": "StakeShmeeps",
  "abi": [
    {
      "inputs": [],
      "stateMutability": "nonpayable",
      "type": "constructor"
    },
    {
      "anonymous": false,
      "inputs": [
        {
          "indexed": true,
          "internalType": "address",
          "name": "previousOwner",
          "type": "address"
        },
        {
          "indexed": true,
          "internalType": "address",
          "name": "newOwner",
          "type": "address"
        }
      ],
      "name": "OwnershipTransferred",
      "type": "event"
    },
    {
      "anonymous": false,
      "inputs": [
        {
          "indexed": false,
          "internalType": "address",
          "name": "account",
          "type": "address"
        },
        {
          "indexed": false,
          "internalType": "uint16",
          "name": "tokenId",
          "type": "uint16"
        },
        {
          "indexed": false,
          "internalType": "uint80",
          "name": "time",
          "type": "uint80"
        }
      ],
      "name": "ShmeepStaked",
      "type": "event"
    },
    {
      "inputs": [],
      "name": "MAX_TOKENS",
      "outputs": [
        {
          "internalType": "uint256",
          "name": "",
          "type": "uint256"
        }
      ],
      "stateMutability": "view",
      "type": "function",
      "constant": true
    },
    {
      "inputs": [],
      "name": "TOKEN_RATE",
      "outputs": [
        {
          "internalType": "uint256",
          "name": "",
          "type": "uint256"
        }
      ],
      "stateMutability": "view",
      "type": "function",
      "constant": true
    },
    {
      "inputs": [],
      "name": "TOKEN_TAX_PERCENTAGE",
      "outputs": [
        {
          "internalType": "uint256",
          "name": "",
          "type": "uint256"
        }
      ],
      "stateMutability": "view",
      "type": "function",
      "constant": true
    },
    {
      "inputs": [],
      "name": "feeAccount",
      "outputs": [
        {
          "internalType": "address",
          "name": "",
          "type": "address"
        }
      ],
      "stateMutability": "view",
      "type": "function",
      "constant": true
    },
    {
      "inputs": [],
      "name": "numShmeepsStaked",
      "outputs": [
        {
          "internalType": "uint256",
          "name": "",
          "type": "uint256"
        }
      ],
      "stateMutability": "view",
      "type": "function",
      "constant": true
    },
    {
      "inputs": [],
      "name": "owner",
      "outputs": [
        {
          "internalType": "address",
          "name": "",
          "type": "address"
        }
      ],
      "stateMutability": "view",
      "type": "function",
      "constant": true
    },
    {
      "inputs": [],
      "name": "renounceOwnership",
      "outputs": [],
      "stateMutability": "nonpayable",
      "type": "function"
    },
    {
      "inputs": [],
      "name": "shmeepNft",
      "outputs": [
        {
          "internalType": "contract IShmeepNft",
          "name": "",
          "type": "address"
        }
      ],
      "stateMutability": "view",
      "type": "function",
      "constant": true
    },
    {
      "inputs": [],
      "name": "shmeeps",
      "outputs": [
        {
          "internalType": "contract IShmeepToken",
          "name": "",
          "type": "address"
        }
      ],
      "stateMutability": "view",
      "type": "function",
      "constant": true
    },
    {
      "inputs": [],
      "name": "totalTokensEarned",
      "outputs": [
        {
          "internalType": "uint256",
          "name": "",
          "type": "uint256"
        }
      ],
      "stateMutability": "view",
      "type": "function",
      "constant": true
    },
    {
      "inputs": [
        {
          "internalType": "address",
          "name": "newOwner",
          "type": "address"
        }
      ],
      "name": "transferOwnership",
      "outputs": [],
      "stateMutability": "nonpayable",
      "type": "function"
    },
    {
      "inputs": [
        {
          "internalType": "uint16[]",
          "name": "tokenIds",
          "type": "uint16[]"
        }
      ],
      "name": "stakeShmeep",
      "outputs": [],
      "stateMutability": "nonpayable",
      "type": "function"
    },
    {
      "inputs": [
        {
          "internalType": "uint16[]",
          "name": "tokenIds",
          "type": "uint16[]"
        },
        {
          "internalType": "bool",
          "name": "unstake",
          "type": "bool"
        }
      ],
      "name": "claimTokens",
      "outputs": [],
      "stateMutability": "nonpayable",
      "type": "function"
    },
    {
      "inputs": [
        {
          "internalType": "address",
          "name": "",
          "type": "address"
        },
        {
          "internalType": "address",
          "name": "from",
          "type": "address"
        },
        {
          "internalType": "uint256",
          "name": "",
          "type": "uint256"
        },
        {
          "internalType": "bytes",
          "name": "",
          "type": "bytes"
        }
      ],
      "name": "onERC721Received",
      "outputs": [
        {
          "internalType": "bytes4",
          "name": "",
          "type": "bytes4"
        }
      ],
      "stateMutability": "pure",
      "type": "function",
      "constant": true
    }
  ],
  "bytecode": "0x608060405234801561001057600080fd5b5061002d61002261013160201b60201c565b61013960201b60201c565b73d7aac94c2f596dfca180acf2735b43ef51b1ec2a600360006101000a81548173ffffffffffffffffffffffffffffffffffffffff021916908373ffffffffffffffffffffffffffffffffffffffff160217905550732a47f52b0fb86e83c723c3235d3fe41e612bf351600560006101000a81548173ffffffffffffffffffffffffffffffffffffffff021916908373ffffffffffffffffffffffffffffffffffffffff160217905550738ce171d997d8a818d6c1437a39f344a74b068adc600660006101000a81548173ffffffffffffffffffffffffffffffffffffffff021916908373ffffffffffffffffffffffffffffffffffffffff1602179055506101fd565b600033905090565b60008060009054906101000a900473ffffffffffffffffffffffffffffffffffffffff169050816000806101000a81548173ffffffffffffffffffffffffffffffffffffffff021916908373ffffffffffffffffffffffffffffffffffffffff1602179055508173ffffffffffffffffffffffffffffffffffffffff168173ffffffffffffffffffffffffffffffffffffffff167f8be0079c531659141344cd1fd0a4f28419497f9722a3daafe3b4186f6b6457e060405160405180910390a35050565b6119818061020c6000396000f3fe608060405234801561001057600080fd5b50600436106100ea5760003560e01c80639779d2931161008c578063b448147811610066578063b448147814610215578063d5fba52e14610233578063f2fde38b14610251578063f47c84c51461026d576100ea565b80639779d293146101bd578063986b1926146101db578063a633c62c146101f9576100ea565b806365e17c9d116100c857806365e17c9d1461015b578063715018a6146101795780638da5cb5b146101835780639357b5ad146101a1576100ea565b8063150b7a02146100ef5780631d076b5b1461011f5780634174f1a51461013d575b600080fd5b61010960048036038101906101049190610fe8565b61028b565b60405161011691906110ab565b60405180910390f35b61012761030e565b60405161013491906110d5565b60405180910390f35b610145610314565b60405161015291906110d5565b60405180910390f35b610163610321565b60405161017091906110ff565b60405180910390f35b610181610347565b005b61018b6103cf565b60405161019891906110ff565b60405180910390f35b6101bb60048036038101906101b69190611170565b6103f8565b005b6101c56107f2565b6040516101d2919061121c565b60405180910390f35b6101e3610818565b6040516101f09190611258565b60405180910390f35b610213600480360381019061020e91906112ab565b61083e565b005b61021d610a43565b60405161022a91906110d5565b60405180910390f35b61023b610a49565b60405161024891906110d5565b60405180910390f35b61026b6004803603810190610266919061130b565b610a4e565b005b610275610b46565b60405161028291906110d5565b60405180910390f35b60008073ffffffffffffffffffffffffffffffffffffffff168573ffffffffffffffffffffffffffffffffffffffff16146102fb576040517f08c379a00000000000000000000000000000000000000000000000000000000081526004016102f290611395565b60405180910390fd5b63150b7a0260e01b905095945050505050565b60025481565b683635c9adc5dea0000081565b600360009054906101000a900473ffffffffffffffffffffffffffffffffffffffff1681565b61034f610b56565b73ffffffffffffffffffffffffffffffffffffffff1661036d6103cf565b73ffffffffffffffffffffffffffffffffffffffff16146103c3576040517f08c379a00000000000000000000000000000000000000000000000000000000081526004016103ba90611401565b60405180910390fd5b6103cd6000610b5e565b565b60008060009054906101000a900473ffffffffffffffffffffffffffffffffffffffff16905090565b60005b828290508110156107ed5761040e610b56565b73ffffffffffffffffffffffffffffffffffffffff16600660009054906101000a900473ffffffffffffffffffffffffffffffffffffffff1673ffffffffffffffffffffffffffffffffffffffff16636352211e85858581811061047557610474611421565b5b905060200201602081019061048a919061148a565b6040518263ffffffff1660e01b81526004016104a691906114e8565b60206040518083038186803b1580156104be57600080fd5b505afa1580156104d2573d6000803e3d6000fd5b505050506040513d601f19601f820116820180604052508101906104f69190611518565b73ffffffffffffffffffffffffffffffffffffffff161461054c576040517f08c379a000000000000000000000000000000000000000000000000000000000815260040161054390611591565b60405180910390fd5b600660009054906101000a900473ffffffffffffffffffffffffffffffffffffffff1673ffffffffffffffffffffffffffffffffffffffff166323b872dd610592610b56565b308686868181106105a6576105a5611421565b5b90506020020160208101906105bb919061148a565b6040518463ffffffff1660e01b81526004016105d9939291906115b1565b600060405180830381600087803b1580156105f357600080fd5b505af1158015610607573d6000803e3d6000fd5b50505050604051806060016040528084848481811061062957610628611421565b5b905060200201602081019061063e919061148a565b61ffff1681526020014269ffffffffffffffffffff168152602001610661610b56565b73ffffffffffffffffffffffffffffffffffffffff168152506004600085858581811061069157610690611421565b5b90506020020160208101906106a6919061148a565b61ffff16815260200190815260200160002060008201518160000160006101000a81548161ffff021916908361ffff16021790555060208201518160000160026101000a81548169ffffffffffffffffffff021916908369ffffffffffffffffffff160217905550604082015181600001600c6101000a81548173ffffffffffffffffffffffffffffffffffffffff021916908373ffffffffffffffffffffffffffffffffffffffff160217905550905050600180600082825461076a9190611617565b925050819055507fbc3dc3e0c861c4086fc9b7867d4392167669e4a4d049c8c1b22ec9be641ce26f61079a610b56565b8484848181106107ad576107ac611421565b5b90506020020160208101906107c2919061148a565b426040516107d2939291906116a1565b60405180910390a180806107e5906116d8565b9150506103fb565b505050565b600660009054906101000a900473ffffffffffffffffffffffffffffffffffffffff1681565b600560009054906101000a900473ffffffffffffffffffffffffffffffffffffffff1681565b60008060005b858590508110156108c45761088086868381811061086557610864611421565b5b905060200201602081019061087a919061148a565b85610c22565b8361088b9190611617565b925081836108999190611617565b600260008282546108aa9190611617565b9250508190555080806108bc906116d8565b915050610844565b5060008214156108d5575050610a3e565b6064600a836108e49190611721565b6108ee91906117aa565b816108f99190611617565b9050600560009054906101000a900473ffffffffffffffffffffffffffffffffffffffff1673ffffffffffffffffffffffffffffffffffffffff166340c10f1933846040518363ffffffff1660e01b81526004016109589291906117db565b600060405180830381600087803b15801561097257600080fd5b505af1158015610986573d6000803e3d6000fd5b50505050600560009054906101000a900473ffffffffffffffffffffffffffffffffffffffff1673ffffffffffffffffffffffffffffffffffffffff166340c10f19600360009054906101000a900473ffffffffffffffffffffffffffffffffffffffff16836040518363ffffffff1660e01b8152600401610a099291906117db565b600060405180830381600087803b158015610a2357600080fd5b505af1158015610a37573d6000803e3d6000fd5b5050505050505b505050565b60015481565b600a81565b610a56610b56565b73ffffffffffffffffffffffffffffffffffffffff16610a746103cf565b73ffffffffffffffffffffffffffffffffffffffff1614610aca576040517f08c379a0000000000000000000000000000000000000000000000000000000008152600401610ac190611401565b60405180910390fd5b600073ffffffffffffffffffffffffffffffffffffffff168173ffffffffffffffffffffffffffffffffffffffff161415610b3a576040517f08c379a0000000000000000000000000000000000000000000000000000000008152600401610b3190611876565b60405180910390fd5b610b4381610b5e565b50565b6b204fce5e3e2502611000000081565b600033905090565b60008060009054906101000a900473ffffffffffffffffffffffffffffffffffffffff169050816000806101000a81548173ffffffffffffffffffffffffffffffffffffffff021916908373ffffffffffffffffffffffffffffffffffffffff1602179055508173ffffffffffffffffffffffffffffffffffffffff168173ffffffffffffffffffffffffffffffffffffffff167f8be0079c531659141344cd1fd0a4f28419497f9722a3daafe3b4186f6b6457e060405160405180910390a35050565b600080600460008561ffff1681526020019081526020016000206040518060600160405290816000820160009054906101000a900461ffff1661ffff1661ffff1681526020016000820160029054906101000a900469ffffffffffffffffffff1669ffffffffffffffffffff1669ffffffffffffffffffff16815260200160008201600c9054906101000a900473ffffffffffffffffffffffffffffffffffffffff1673ffffffffffffffffffffffffffffffffffffffff1673ffffffffffffffffffffffffffffffffffffffff168152505090503373ffffffffffffffffffffffffffffffffffffffff16816040015173ffffffffffffffffffffffffffffffffffffffff1614610d3357600080fd5b6b204fce5e3e250261100000006002541015610db55762015180683635c9adc5dea00000826020015169ffffffffffffffffffff1642610d739190611896565b610d7d9190611721565b610d8791906117aa565b91506064600a6064610d999190611896565b83610da49190611721565b610dae91906117aa565b9150610dba565b600091505b8215610ede57600460008561ffff168152602001908152602001600020600080820160006101000a81549061ffff02191690556000820160026101000a81549069ffffffffffffffffffff021916905560008201600c6101000a81549073ffffffffffffffffffffffffffffffffffffffff021916905550506001806000828254610e459190611896565b92505081905550600660009054906101000a900473ffffffffffffffffffffffffffffffffffffffff1673ffffffffffffffffffffffffffffffffffffffff1663b88d4fde3033876040518463ffffffff1660e01b8152600401610eab93929190611901565b600060405180830381600087803b158015610ec557600080fd5b505af1158015610ed9573d6000803e3d6000fd5b505050505b5092915050565b600080fd5b600080fd5b600073ffffffffffffffffffffffffffffffffffffffff82169050919050565b6000610f1a82610eef565b9050919050565b610f2a81610f0f565b8114610f3557600080fd5b50565b600081359050610f4781610f21565b92915050565b6000819050919050565b610f6081610f4d565b8114610f6b57600080fd5b50565b600081359050610f7d81610f57565b92915050565b600080fd5b600080fd5b600080fd5b60008083601f840112610fa857610fa7610f83565b5b8235905067ffffffffffffffff811115610fc557610fc4610f88565b5b602083019150836001820283011115610fe157610fe0610f8d565b5b9250929050565b60008060008060006080868803121561100457611003610ee5565b5b600061101288828901610f38565b955050602061102388828901610f38565b945050604061103488828901610f6e565b935050606086013567ffffffffffffffff81111561105557611054610eea565b5b61106188828901610f92565b92509250509295509295909350565b60007fffffffff0000000000000000000000000000000000000000000000000000000082169050919050565b6110a581611070565b82525050565b60006020820190506110c0600083018461109c565b92915050565b6110cf81610f4d565b82525050565b60006020820190506110ea60008301846110c6565b92915050565b6110f981610f0f565b82525050565b600060208201905061111460008301846110f0565b92915050565b60008083601f8401126111305761112f610f83565b5b8235905067ffffffffffffffff81111561114d5761114c610f88565b5b60208301915083602082028301111561116957611168610f8d565b5b9250929050565b6000806020838503121561118757611186610ee5565b5b600083013567ffffffffffffffff8111156111a5576111a4610eea565b5b6111b18582860161111a565b92509250509250929050565b6000819050919050565b60006111e26111dd6111d884610eef565b6111bd565b610eef565b9050919050565b60006111f4826111c7565b9050919050565b6000611206826111e9565b9050919050565b611216816111fb565b82525050565b6000602082019050611231600083018461120d565b92915050565b6000611242826111e9565b9050919050565b61125281611237565b82525050565b600060208201905061126d6000830184611249565b92915050565b60008115159050919050565b61128881611273565b811461129357600080fd5b50565b6000813590506112a58161127f565b92915050565b6000806000604084860312156112c4576112c3610ee5565b5b600084013567ffffffffffffffff8111156112e2576112e1610eea565b5b6112ee8682870161111a565b9350935050602061130186828701611296565b9150509250925092565b60006020828403121561132157611320610ee5565b5b600061132f84828501610f38565b91505092915050565b600082825260208201905092915050565b7f43616e6e6f742073656e6420746f205374616b65206469726563746c79000000600082015250565b600061137f601d83611338565b915061138a82611349565b602082019050919050565b600060208201905081810360008301526113ae81611372565b9050919050565b7f4f776e61626c653a2063616c6c6572206973206e6f7420746865206f776e6572600082015250565b60006113eb602083611338565b91506113f6826113b5565b602082019050919050565b6000602082019050818103600083015261141a816113de565b9050919050565b7f4e487b7100000000000000000000000000000000000000000000000000000000600052603260045260246000fd5b600061ffff82169050919050565b61146781611450565b811461147257600080fd5b50565b6000813590506114848161145e565b92915050565b6000602082840312156114a05761149f610ee5565b5b60006114ae84828501611475565b91505092915050565b60006114d26114cd6114c884611450565b6111bd565b610f4d565b9050919050565b6114e2816114b7565b82525050565b60006020820190506114fd60008301846114d9565b92915050565b60008151905061151281610f21565b92915050565b60006020828403121561152e5761152d610ee5565b5b600061153c84828501611503565b91505092915050565b7f796f7520646f6e2774206f776e2074686973206e66742e000000000000000000600082015250565b600061157b601783611338565b915061158682611545565b602082019050919050565b600060208201905081810360008301526115aa8161156e565b9050919050565b60006060820190506115c660008301866110f0565b6115d360208301856110f0565b6115e060408301846114d9565b949350505050565b7f4e487b7100000000000000000000000000000000000000000000000000000000600052601160045260246000fd5b600061162282610f4d565b915061162d83610f4d565b9250827fffffffffffffffffffffffffffffffffffffffffffffffffffffffffffffffff03821115611662576116616115e8565b5b828201905092915050565b61167681611450565b82525050565b600069ffffffffffffffffffff82169050919050565b61169b8161167c565b82525050565b60006060820190506116b660008301866110f0565b6116c3602083018561166d565b6116d06040830184611692565b949350505050565b60006116e382610f4d565b91507fffffffffffffffffffffffffffffffffffffffffffffffffffffffffffffffff821415611716576117156115e8565b5b600182019050919050565b600061172c82610f4d565b915061173783610f4d565b9250817fffffffffffffffffffffffffffffffffffffffffffffffffffffffffffffffff04831182151516156117705761176f6115e8565b5b828202905092915050565b7f4e487b7100000000000000000000000000000000000000000000000000000000600052601260045260246000fd5b60006117b582610f4d565b91506117c083610f4d565b9250826117d0576117cf61177b565b5b828204905092915050565b60006040820190506117f060008301856110f0565b6117fd60208301846110c6565b9392505050565b7f4f776e61626c653a206e6577206f776e657220697320746865207a65726f206160008201527f6464726573730000000000000000000000000000000000000000000000000000602082015250565b6000611860602683611338565b915061186b82611804565b604082019050919050565b6000602082019050818103600083015261188f81611853565b9050919050565b60006118a182610f4d565b91506118ac83610f4d565b9250828210156118bf576118be6115e8565b5b828203905092915050565b600082825260208201905092915050565b50565b60006118eb6000836118ca565b91506118f6826118db565b600082019050919050565b600060808201905061191660008301866110f0565b61192360208301856110f0565b61193060408301846114d9565b8181036060830152611941816118de565b905094935050505056fea2646970667358221220efaebac88e7f66deae297e1700e4f33d8cf5c7cecd28ac6ecb6dc9654ed0daac64736f6c63430008090033",
  "immutableReferences": {},
  "source": "// SPDX-License-Identifier: MIT\npragma solidity ^0.8.0;\n\nimport \"@openzeppelin/contracts/access/Ownable.sol\";\nimport \"@openzeppelin/contracts/token/ERC721/IERC721Receiver.sol\";\nimport './interfaces/IShmeepNft.sol';\nimport './interfaces/IShmeepToken.sol';\n\ncontract StakeShmeeps is Ownable, IERC721Receiver {\n\n\tstruct Stake {\n\t\tuint16 tokenId;\n\t\tuint80 value;\n\t\taddress owner;\n\t}\n\n\tuint256 public numShmeepsStaked;\n\tuint256 public constant TOKEN_RATE = 1000 ether;\n\tuint256 public constant TOKEN_TAX_PERCENTAGE = 10;\n\tuint256 public constant MAX_TOKENS = 10000000000 ether;\n\tuint256 public totalTokensEarned;\n\taddress public feeAccount;\n\n\tmapping(uint256 => Stake) private staked;\n\tevent ShmeepStaked(address account, uint16 tokenId, uint80 time);\n\n\tIShmeepToken public shmeeps;\n\tIShmeepNft public shmeepNft;\n\n\tconstructor() {\n\t\tfeeAccount = address(0xD7aac94C2f596dfCa180ACF2735b43eF51B1ec2a);\n\t\tshmeeps = IShmeepToken(address(0x2a47F52B0fb86e83C723C3235d3fe41e612bF351));\n\t\tshmeepNft = IShmeepNft(address(0x8CE171d997d8a818D6c1437a39F344A74b068ADc));\n\n\t}\n\n\tfunction stakeShmeep (uint16[] calldata tokenIds) external {\n\t\tfor(uint i = 0; i < tokenIds.length; i++) {\n\t\t\trequire(shmeepNft.ownerOf(tokenIds[i]) == _msgSender(), \"you don't own this nft.\");\n\t\t\tshmeepNft.transferFrom(_msgSender(), address(this), tokenIds[i]);\n\t\t\tstaked[tokenIds[i]] = Stake({\n\t\t\t\ttokenId: uint16(tokenIds[i]),\n\t\t\t\tvalue: uint80(block.timestamp),\n\t\t\t\towner: _msgSender()\n\t\t\t});\n\t\t\tnumShmeepsStaked += 1;\n\t\t\temit ShmeepStaked(_msgSender(), tokenIds[i], uint80(block.timestamp));\n\t\t}\n\t}\n\n\tfunction claimTokens (uint16[] calldata tokenIds, bool unstake) external {\n\t\tuint256 owed = 0;\n\t\tuint256 taxOwed = 0;\n\t\tfor(uint i = 0; i < tokenIds.length; i++) {\n\t\t\towed += _claimShmeep(tokenIds[i], unstake);\n\t\t\ttotalTokensEarned += owed + taxOwed;\n\t\t}\n\t\tif(owed == 0) {\n\t\t\treturn;\n\t\t}\n\t\ttaxOwed += owed * TOKEN_TAX_PERCENTAGE / 100;\n\t\tshmeeps.mint(msg.sender, owed);\n\t\tshmeeps.mint(feeAccount, taxOwed);\n\t}\n\n\tfunction _claimShmeep (uint16 tokenId, bool unstake) internal returns (uint256 owed) {\n\t\tStake memory stake = staked[tokenId];\n\t\trequire(stake.owner == msg.sender);\n\t\tif(totalTokensEarned < MAX_TOKENS) {\n\t\t\towed = (block.timestamp - stake.value) * TOKEN_RATE / 1 days;\n\t\t\towed = owed * (100 - TOKEN_TAX_PERCENTAGE) / 100;\n\t\t} else {\n\t\t\towed = 0;\n\t\t}\n\t\tif(unstake) {\n\t\t\tdelete staked[tokenId];\n\t\t\tnumShmeepsStaked -= 1;\n\t\t\tshmeepNft.safeTransferFrom(address(this), msg.sender, tokenId, \"\");\n\t\t}\n\t}\n\n\tfunction onERC721Received(\n        address,\n        address from,\n        uint256,\n        bytes calldata\n    ) external pure override returns (bytes4) {\n      require(from == address(0x0), \"Cannot send to Stake directly\");\n      return IERC721Receiver.onERC721Received.selector;\n    }\n}",
  "sourcePath": "/Users/jaydendavila/Desktop/ShmeepStaking/src/contracts/Staking.sol",
  "compiler": {
    "name": "solc",
    "version": "0.8.9+commit.e5eed63a.Emscripten.clang"
  },
  "schemaVersion": "3.4.4",
  "updatedAt": "2022-01-23T18:35:55.047Z",
  "networkType": "ethereum",
  "devdoc": {
    "kind": "dev",
    "methods": {
      "owner()": {
        "details": "Returns the address of the current owner."
      },
      "renounceOwnership()": {
        "details": "Leaves the contract without owner. It will not be possible to call `onlyOwner` functions anymore. Can only be called by the current owner. NOTE: Renouncing ownership will leave the contract without an owner, thereby removing any functionality that is only available to the owner."
      },
      "transferOwnership(address)": {
        "details": "Transfers ownership of the contract to a new account (`newOwner`). Can only be called by the current owner."
      }
    },
    "version": 1
  },
  "userdoc": {
    "kind": "user",
    "methods": {},
    "version": 1
  }
}